:100000000C942A000C9434000C9434000C943400AA
:100010000C9434000C9434000C9434000C94340090
:100020000C9434000C9434000C9434000C94340080
:100030000C9434000C9434000C9434000C94340070
:100040000C9434000C9434000C9434000C94340060
:100050000C94340011241FBECFE5D8E0DEBFCDBF25
:100060000E9436000C9490020C94000080E060E046
:1000700040E00E94690081E060E041E00E94690088
:100080000E94450180E00E945E010E9467010E947B
:100090006D01A0E0B0E0BC01CD010E947B0120E039
:1000A00030E040EA5BE30E94DC0120E030E040E425
:1000B0005FE30E947701882334F481E060E041E04F
:1000C0000E94D700E2CF81E060E040E00E94D700CC
:1000D000DCCF813009F1813030F08230B1F18330F2
:1000E00009F064C04BC0EAE3F0E0208181E090E0D9
:1000F000062E02C0880F991F0A94E2F7809582238A
:1001000080832081842F90E002C0880F991F6A9518
:10011000E2F7282B20830895E7E3F0E0208181E0D7
:1001200090E0062E02C0880F991F0A94E2F780958E
:10013000822380832081842F90E002C0880F991F42
:100140006A95E2F7282B20830895E4E3F0E020810C
:1001500081E090E0062E02C0880F991F0A94E2F712
:100160008095822380832081842F90E002C0880FB5
:10017000991F6A95E2F7282B20830895E1E3F0E0C8
:10018000208181E090E0062E02C0880F991F0A941A
:10019000E2F78095822380832081842F90E002C043
:1001A000880F991F6A95E2F7282B208308958130E4
:1001B00009F1813030F08230B1F1833009F064C050
:1001C0004BC0EBE3F0E0208181E090E0062E02C01E
:1001D000880F991F0A94E2F78095822380832081FB
:1001E000842F90E002C0880F991F6A95E2F7282BB0
:1001F00020830895E8E3F0E0208181E090E0062E7E
:1002000002C0880F991F0A94E2F7809582238083A9
:100210002081842F90E002C0880F991F6A95E2F731
:10022000282B20830895E5E3F0E0208181E090E031
:10023000062E02C0880F991F0A94E2F78095822348
:1002400080832081842F90E002C0880F991F6A95D7
:10025000E2F7282B20830895E2E3F0E0208181E09B
:1002600090E0062E02C0880F991F0A94E2F780954D
:10027000822380832081842F90E002C0880F991F01
:100280006A95E2F7282B20830895E7E2F0E0808169
:100290008F73808380818064808380818F7D808361
:1002A000E6E2F0E01082808180838081808380811B
:1002B000836080838081806880830895E7E2F0E036
:1002C0009081907E90839081892B80830895E6E2CF
:1002D000F0E0808180648083089584B190E045B12E
:1002E000342F20E0282B392B822F932F089540D0D4
:1002F00008F481E00895E89409C097FB3EF49095D6
:100300008095709561957F4F8F4F9F4F9923A9F0EE
:10031000F92F96E9BB279395F6958795779567957D
:10032000B795F111F8CFFAF4BB0F11F460FF1BC0C1
:100330006F5F7F4F8F4F9F4F16C0882311F096E954
:1003400011C0772321F09EE8872F762F05C0662302
:1003500071F096E8862F70E060E02AF09A95660FBB
:10036000771F881FDAF7880F9695879597F9089574
:10037000990F0008550FAA0BE0E8FEEF16161706B6
:10038000E807F907C0F012161306E407F50798F01E
:10039000621B730B840B950B39F40A2661F0232B37
:1003A000242B252B21F408950A2609F4A140A695B3
:1003B0008FEF811D811D08950BD078C069D028F082
:1003C0006ED018F0952309F05AC05FC01124A2C066
:1003D0007ED0A0F3959FD1F3950F50E0551F629FFB
:1003E000F001729FBB27F00DB11D639FAA27F00D8E
:1003F000B11DAA1F649F6627B00DA11D661F829FB5
:100400002227B00DA11D621F739FB00DA11D621F99
:10041000839FA00D611D221F749F3327A00D611DB6
:10042000231F849F600D211D822F762F6A2F112498
:100430009F5750408AF0E1F088234AF0EE0FFF1FEB
:10044000BB1F661F771F881F91505040A9F79E3F22
:10045000510570F014C05EC05F3FECF3983EDCF3D2
:10046000869577956795B795F795E7959F5FC1F75F
:10047000FE2B880F911D9695879597F9089597F90A
:100480009F6780E870E060E008959FEF80EC08953A
:1004900000240A9416161706180609060895002463
:1004A0000A9412161306140605060895092E0394DD
:1004B000000C11F4882352F0BB0F40F4BF2B11F451
:1004C00060FF04C06F5F7F4F8F4F9F4F089557FDB0
:1004D0009058440F551F59F05F3F71F04795880FB2
:1004E00097FB991F61F09F3F79F087950895121649
:1004F00013061406551FF2CF4695F1DF08C01616F5
:1005000017061806991FF1CF8695710561050894A5
:100510000895E894BB2766277727CB0197F90895BC
:04052000F894FFCF7D
:00000001FF
